:020000040800F2
:100000006806002005010008132A000805240008DE
:10001000112A000859080008E13200080000000019
:10002000000000000000000000000000192C000883
:100030009F08000800000000E52B00082D2C000898
:100040001F0100081F0100081F0100081F01000810
:100050001F0100081F0100081F0100081F01000800
:100060001F0100081F0100081F0100081F010008F0
:100070001F0100081F0100085D080008690800084A
:100080001F0100081F0100081F0100081F010008D0
:100090001F0100081F0100081F0100081F010008C0
:1000A0001F010008912C00081F0100081F01000813
:1000B0009D2C00081F010008A92C00081F01000842
:1000C0001F0100081F0100081F0100081F01000890
:1000D0001F010008D53200081F0100081F01000899
:1000E0001F0100081F0100081F010008DFF810D0E1
:1000F00000F0A0FB00480047E93B0008AFF3008098
:10010000680600200648804706480047FEE7FEE7ED
:10011000FEE7FEE7FEE7FEE7FEE7FEE7FEE7FEE7B7
:100120008F2C0008ED000008202A04DB203A21FA79
:1001300002F00021704721FA02F3D040C2F1200200
:100140009140084319467047D2B201E000F8012BF4
:10015000491EFBD270470022F6E710B513460A4647
:1001600004461946FFF7F0FF204610BDF0B480EAC0
:100170000102D40F4200B2EB410F02D20246084600
:1001800011464A0042D0C30DDDB2C1F3C752AD1AC9
:10019000202D35DAC1F3160141F4000204B15242B8
:1001A000C5F1200602FA06F12A411044B3EBD05FF4
:1001B00023D0C4B1012DA0EBC35009DCF0BC4FF03B
:1001C000004202EAC352DBB200F5000000F008BAB8
:1001D000400000F1807000EBC350A0F1807040EA55
:1001E000D170490009E0490841EAC071A0EBC35051
:1001F00000F50000400800EBC350F0BC00F0E7B988
:100200006142012202EB4101001BF6E7F0BC70479E
:1002100081F00041AAE780F00040A7E7420005D046
:10022000C0F3C7525242914201DC0020704700EBFC
:10023000C15070472DE9FE4F804681EA0300C00F90
:100240000C46009021F0004123F00045B8EB02007D
:10025000A94105D24046214690461C460B4602461F
:1002600023F00040104347D0270DC7F30A00C3F323
:100270000A510290401A019040286BDAC3F3130030
:1002800040F4801B0098924620B10023D2EB030A71
:1002900063EB0B0B01985946C0F14002504600F049
:1002A00075F906460D4650465946019A00F07DF90B
:1002B00010EB08006141002487EA115284EAE773D9
:1002C0001A4340D0009A62B3019A012A4FEA0752BA
:1002D00015DC001B61EB02014FF0004202EA0752FD
:1002E000CDE90042001C41F5801132462B4600F05A
:1002F000B4F903B0BDE8F08F40462146F9E7001B92
:1003000061EB0201001C41F5801300185B412018CD
:10031000A2F5001747EB030140EAD570B6196D410D
:1003200011E06D084FEA360645EAC0754FEA0752FC
:10033000001B61EB0201001C41F5801149084FEAE6
:1003400030000019514132462B4603B0BDE8F04F52
:1003500000F074B90098012240000023D0EB0202A3
:1003600063EBE073009821464FEAE074B8EB0000BD
:1003700061EB0401E9E783F000435BE781F00041B2
:1003800058E72DE9FE4F81EA030404F0004421F010
:10039000004100944FF0000B23F0004350EA0104A9
:1003A0005ED052EA03045BD0C3F30A54C1F30A558A
:1003B0002C44A4F2F3340194A0FB0254C1F31301C2
:1003C00041F48011C3F3130343F4801301FB02448F
:1003D00000FB034E840A970A44EA815447EA835794
:1003E000A4FB076802958D0A05FB07854FEA932C4D
:1003F00004FB0C542705029D4FEA065847EA1637BE
:10040000B5EB08056EEB070C870E920E47EA8117D5
:1004100042EA8312A7FB0201B6EB0B0164EB000476
:100420002B0D43EA0C335E1844EB1C50DA46514660
:10043000E7FB0201C5F313044FEA0B3343EA1453FD
:100440004FEA0432019C43EA0603A4F10C0402942F
:10045000009CCDE900B400F000F903B0BDE8F08FD6
:1004600000200146F9E7C10F80EAE0700844CA079E
:100470009623002100F0B4B80EB5C10F80EAE070F9
:100480000844CA07002140F233438DE80E000A46B3
:100490000B4600F0E2F803B000BD70B5C1F30A529C
:1004A00001F000450024C1F3130140F2FF3341F491
:1004B00080119A4201DA002070BD40F233439A4223
:1004C000A2F2334203DC5242FFF72EFE00E09040DE
:1004D0002C43F1D0404270BD00F0004230F00040AB
:1004E0000AD0C10D01F56071C0F3160042EA015156
:1004F000C20840071143704700200146704730B5DD
:100500000B46014600202022012409E021FA02F5D1
:100510009D4205D303FA02F5491B04FA02F528446B
:10052000151EA2F10102F1DC30BD2DE9F05F054698
:10053000002092469B4688460646814640241BE0A2
:100540002846414647462246FFF7EEFD53465A46A7
:10055000C01A914110D311461846224600F016F8F1
:100560002D1A67EB01084F4622460120002100F0BA
:100570000DF817EB00094E41201EA4F10104DFDC49
:10058000484631462A464346BDE8F09F202A04DB10
:10059000203A00FA02F1002070479140C2F1200396
:1005A00020FA03F3194390407047202A06DBCB174B
:1005B000203A41FA02F043EAE07306E041FA02F31E
:1005C000D040C2F1200291400843194670470029EB
:1005D000A8BF7047401C490008BF20F001007047C9
:1005E00010B4B0FA80FC00FA0CF050EA010404BF29
:1005F00010BC704749B1CCF1200421FA04F411FA7F
:100600000CF118BF012121430843A3EB0C01CB1DC2
:100610004FEA00614FEA102042BF002010BC704733
:1006200000EBC35010440029A4BF10BC7047401C0D
:10063000490008BF20F0010010BC704710B5141E1F
:1006400073F1000408DA401C41F1000192185B418B
:100650001A4301D120F0010010BD2DE9F04D924662
:100660009B4611B1B1FA81F202E0B0FA80F2203279
:100670009046FFF78BFF04460F4640EA0A0041EA26
:100680000B0153465A46084313D0114653EA010062
:1006900019D0C8F140025046FFF746FD05460E4608
:1006A000504659464246FFF771FF084305D00120E6
:1006B00004E020463946BDE8F08D0020054346EAB7
:1006C000E0762C4337430A986305E40AA0EB080060
:1006D0000022FD0A44EA47540A3002D500200146B0
:1006E000E9E7010510196941DDE90845001969418B
:1006F000BDE8F04DA2E72DE9F04D81EA030404F0D6
:10070000004B21F0004514464FF0000A23F0004151
:1007100050EA050220D054EA01021DD0C5F30A5761
:100720000246C5F31303C1F31300C1F30A5640F4A4
:10073000801543F48013A7EB0608101BD64608F279
:10074000FD3873EB050002D308F1010801E09218AF
:100750005B41B8F1000F03DA00200146BDE8F08DDF
:1007600000204FF48011064684460EE0171B73EB01
:10077000050705D3121B63EB050306434CEA010C86
:1007800049084FEA300092185B4150EA0107EDD169
:1007900052EA030012D082EA040083EA050108430A
:1007A00005D0101BAB4106D20122002306E0002237
:1007B0004FF0004302E06FF0010253101AEB060005
:1007C0004CEB085110EB0A0041EB0B01BDE8F04D7A
:1007D000FFF734BFC1F30A52C1F3130140F2FF33F4
:1007E00041F480119A4202DA00200146704740F23B
:1007F00033439A42A2F2334202DC5242FFF794BCE6
:10080000FFF7C4BE30B5041E71F1000404DB4FF0E5
:100810000044404264EB0101141E73F1000405DB47
:100820001C464FF00043524263EB0403994208BF59
:10083000904230BD064C074D06E0E06840F00103F1
:1008400094E8070098471034AC42F6D3FFF752FC07
:10085000943C0008B43C0008FEE70000014800F0AA
:1008600091B8000020020020014800F08BB8000081
:10087000DC01002030B590F840500124AC40C56B3D
:100880006C60046863604368102B036803D0996050
:100890000068C26030BD9A600068C16030BD7047BA
:1008A00072B6FEE710B590F821100022022905D09B
:1008B0000421816380F82020012010BD01680B68AD
:1008C00023F00E030B6001680B6823F001030B603B
:1008D00090F84030C46B012101FA03F3636080F8A3
:1008E000211080F82020104610BD000010B590F8AF
:1008F00021100024022903D00421816301243DE05A
:1009000001680A6822F00E020A6001680A6822F093
:1009100001020A601A4A0168914201D1012121E0D5
:10092000174A1432914201D110211BE0144A283297
:10093000914201D1891515E0114A3C32914201D111
:1009400089140FE00E4A5032914202D14FF48031A7
:1009500008E00B4A6432914202D14FF4801101E069
:100960004FF08071064A083A5160012180F8211049
:10097000002180F82010416B01B18847204610BD4E
:10098000080002402DE9F05FC16B0C6801680B683C
:10099000D0F840C0042202FA0CF2494DDFF824A13D
:1009A000494E4A4FDFF828B1DFF828E122422CD027
:1009B0005A072AD50A68920603D40A6822F004026C
:1009C0000A600168A94201D1042219E0514501D110
:1009D000402215E0B14202D14FF4806210E0B942EA
:1009E00002D14FF480420BE0594502D14FF48022EE
:1009F00006E0714502D14FF4800201E04FF08062C1
:100A00002F4908394A60C16A3BE04FF0020808FAF2
:100A10000CF818EA040F4FF000094FF0010235D02E
:100A20005FEA837832D50B689B0605D40B6823F008
:100A30000A030B6080F821200168A94201D102223B
:100A400019E0514501D1202215E0B14202D14FF405
:100A5000007210E0B94202D14FF400520BE0594548
:100A600002D14FF4003206E0714502D14FF400127A
:100A700001E04FF00072124908394A6080F8209076
:100A8000816A00291AD0BDE8F05F0847082505FAF9
:100A90000CF5254212D01B0710D50B6823F00E036E
:100AA0000B6090F84010C36B02FA01F15960826349
:100AB00080F8212080F82090016BE2E7BDE8F09FEC
:100AC000080002401C000240300002404400024086
:100AD000580002406C00024030B528B308C81349E2
:100AE00014221944B1FBF2F18900C16310498163FA
:100AF000022141771A6843F6F0718A43D0E9001465
:100B00002143D0E902452C43214304692143446930
:100B1000214384692143114319600021416301226B
:100B200042770177084630BD012030BDF8FFFDBF98
:100B30000000024070B5044690F82000002501280E
:100B40000CD0012084F8200094F821600020012EB0
:100B500006D084F820000225284670BD022070BD12
:100B6000022684F82160A0632068066826F001064A
:100B700006602046FFF77EFEE06A002820680168D4
:100B800002D041F00E0106E021F00401016020686E
:100B9000016841F00A0101602068016841F001012B
:100BA0000160D9E770B5044600F004F90546601C01
:100BB00002D004480078044400F0FCF8401BA04236
:100BC000FAD370BD0C0000202DE9F84FDFF8B89182
:100BD0000024A9F1040B23460F2709F1040AABF105
:100BE000040EC9E00125A5402A40AA427DD1674EE6
:100BF000D1F804C0ACEB0608B44532D014DCBCF12B
:100C0000030F3AD009DCBCF1000F2AD0BCF1010F70
:100C10001CD0BCF1020F31D11DE0BCF1110F17D077
:100C2000BCF1120F2AD119E0B8F5881F19D006DCE3
:100C3000B8F5803F15D0B8F5801F1FD111E0B8F589
:100C4000001F0ED0B8F5041F18D10AE0CB6815E0DC
:100C5000CB681B1D12E0CB6808330FE0CB680C3368
:100C60000CE08B682BB1012B4FF0080303D04561DA
:100C700004E0042302E0056100E00023FF2A01D81C
:100C8000064601E000F104064FEA840501D9A5F10A
:100C90002005D6F8008007FA05FC28EA0C0803FABC
:100CA00005F548EA0508C6F800804D68ED0062D5F4
:100CB000374DAE6946F00106AE61AD6924F003061A
:100CC00005F001050095334D06EB050CDCF80850E6
:100CD000A607360F07FA06F825EA0805DFF8B880F8
:100CE000404503D14FF0000817E044E0DFF8AC8046
:100CF000404502D14FF001080FE0DFF8A4804045E5
:100D000002D14FF0020808E0DFF89880404502D198
:100D10004FF0030801E04FF0040808FA06F848EA2B
:100D20000508CCF808804D68D9F80060ED024D4602
:100D300001D5164300E096432E604D68DAF8006056
:100D4000AD02554601D5164300E096432E604D682E
:100D5000DBF80060AD035D4601D5164300E0964325
:100D60002E604D68DEF80060ED03754601D5164330
:100D700000E096432E60641C0D682A46E5407FF42F
:100D800031AFBDE8F88F00000804014000001110E9
:100D9000001002400000014000080140000C01402A
:100DA00000100140001401400AB1016170470904BC
:100DB000FBE7000001488068704700000C0000203D
:100DC00070B5040025D094F83D00002520B984F8C2
:100DD0003C50204600F04EF9242084F83D00206865
:100DE000016821F0010101602068016841F40041BF
:100DF00001602068016821F40041016000F0A0FA60
:100E00004D4A6168914201D84C4900E04C49884202
:100E100001D2012070BD4B492368B0FBF1F15E683F
:100E200026F03F060E435E606368934206D94FF496
:100E3000967359434FF47A73B1FBF3F12368491C5D
:100E40001E6A26F03F06314319626168914210D84C
:100E50004900401EB0FBF1F2521CC2F30B02042AFF
:100E600001D2042022E0B0FBF1F0401CC0F30B00E3
:100E70001CE0A268F2B301EBC10303EB0116431EB1
:100E8000B3FBF6F35B1C43F480431B0549D092B3DC
:100E900001EBC10202EB0111401EB0FBF1F0401C5E
:100EA000C0F30B0040F4804040F400402168CA6960
:100EB0004CF6FF739A431043C861D4E9071001430D
:100EC0002068026822F0C00211430160D4E90301E6
:100ED00001432068826848F2FF339A4311438160DE
:100EE000D4E9050108432168CA6822F0FF021043D3
:100EF000C86001E00EE016E02068016841F00101E1
:100F000001602564202084F83D00256384F83E506C
:100F1000002070BD01EB4106431EB3FBF6F35B1CE2
:100F2000B3E70120C2E701EB4101401EB0FBF1F045
:100F3000401CC0F30B00B7E7A086010080841E00B0
:100F400000093D0040420F002DE9F84F1F46904632
:100F50008A460446DDF82890FFF72CFF054694F8F2
:100F60003D0020287FD119230122404920460095C9
:100F700001F0DAFA002876D194F83C00012872D00A
:100F8000012084F83C0020680168C90703D101688A
:100F900041F0010101602068016821F400610160F5
:100FA000212084F83D00102084F83E0000262664AD
:100FB000C4F824806785608D20852D48E0622B462B
:100FC0004A465146204601F035FA90B920684169F9
:100FD0008069009036E02A464946204601F04AFBE7
:100FE00050B1206C042804D12068016841F40071DC
:100FF00001600120BDE8F88F606A2168007808610F
:10100000606A401C6062618D491E6185218D491EA8
:1010100089B2218522685369DB435B070BD451B148
:1010200000781061606A401C6062608D401E6085BF
:10103000208D401E20852A464946204601F048FA68
:101040000028CED1208D0028C5D154F83D0B016871
:1010500041F400710160202004F81E09E6776677EC
:101060000020C7E7FFE70220C4E7000002001000ED
:101070000000FFFF10B586B00021009101910291A0
:10108000039100681349884222D1134CA06940F0B3
:101090000800A061A069694600F0080004904FF4C0
:1010A0004070009012200190032003900B48FFF73E
:1010B0008BFD0B48416841F0E06141F00201416065
:1010C000E06940F40010E061E06900F40010049071
:1010D00006B010BD0054004000100240000C01405A
:1010E0000000014002488168027811448160704725
:1010F0000C000020074810B5016841F010010160A4
:10110000032000F075F80F2000F006F800F024F836
:10111000002010BD0020024070B50D4D04464FF474
:101120007A712878B1FBF0F00A490968B1FBF0F058
:1011300000F0DCFA48B9102C07D200222146501EDC
:1011400000F036F800206C6070BD012070BD00001A
:101150000C000020180000200C4808B5816941F0FF
:1011600001018161816901F001010091C16941F0D2
:101170008051C161C06900F080500090044841680E
:1011800021F0E06141F08071416008BD0010024033
:1011900000000140002809DB00F01F0201219140FE
:1011A0004009800000F1E020C0F800117047000005
:1011B000F0B40E4B1B680C46C3F30223C3F10705C2
:1011C000042D00D90425191D072901D2002300E0B0
:1011D000DB1E012606FA05F1491E214099409E407A
:1011E000761E16403143F0BC02F08CB80CED00E0E6
:1011F000064900F0070208684FF6FF03184040EA6E
:101200000220034A10430860704700000CED00E024
:101210000000FA052DE9F0470F46050061D0434E66
:10122000306800F00700B84209D2306820F00700AB
:1012300038433060306800F00700B84251D1286868
:101240003B4C810712D5400703D5606840F4E0604D
:1012500060602878000703D5606840F460506060E3
:101260006068A96820F0F000084360602878C00733
:1012700028D06868012810D02168022810D089077A
:1012800000292EDA616821F0030101436160FFF754
:1012900091FD804641F288390DE021688903EFE72E
:1012A0008901EDE7FFF786FDA0EB0801494502D96A
:1012B0000320BDE8F0876068696800F00C00B0EBBF
:1012C000810FEFD1306800F00700B8420BD93068C9
:1012D00020F0070038433060306800F00700B84263
:1012E00001D00120E5E72878400705D56068E96866
:1012F00020F4E060084360602878000706D5606845
:10130000296920F4605040EAC100606000F038F8BC
:101310006168084AC1F30311515CC840064908607E
:1013200006480068FFF7F8FE0020C2E700200240F0
:10133000001002407A3C0008180000201000002035
:101340000448054900684968044AC1F30221515C18
:10135000C840704718000020001002408A3C000876
:101360000448054900684968044AC1F3C221515C38
:10137000C840704718000020001002408A3C000856
:101380000E4A51680E4801F00C03042B11D0082BB3
:101390000FD10C48C1F38343C903C05C0AD551681F
:1013A000084AC1F34041921E515C054A5043B0FBCC
:1013B000F1F07047044948437047000000100240B4
:1013C00000127A006A3C000800093D002DE9F84F40
:1013D000040070D02078C04DC00749D06868C0F3C1
:1013E0008100012807D06868C0F38100022809D174
:1013F0006868C00306D52868800339D5606800286E
:10140000E7D035E06068B0F5803F0BD010B1B0F5A3
:10141000A02F11D0286820F480302860286820F49C
:10142000802002E0286840F480302860606890B135
:10143000FFF7C0FC06460AE0286840F480202860D8
:10144000F0E700BFFFF7B6FC801B642873D828685C
:101450008003F7D50CE0FFF7ADFC064605E000BFC2
:10146000FFF7A8FC801B6428F0D828688003F7D415
:1014700020789A4E80074FF001094FF0000839D5C7
:10148000686810F00C0F07D06868C0F3810002286C
:1014900009D16868C00306D42868800714D520697C
:1014A000012808D110E02069B0B1C6F80090FFF71C
:1014B00081FC074605E00AE1FFF77CFCC01B02281F
:1014C000C4D828688007F7D52868616920F0F8003B
:1014D00040EAC10028600DE0C6F80080FFF76AFC12
:1014E000074604E0FFF766FCC01B022823D82868E3
:1014F0008007F7D4207800072CD57948A169D9B1A5
:10150000C0F80090FFF756FC074604E0FFF752FCD6
:10151000C01B02280FD8686A8007F7D571484FF4BE
:10152000FA510068B0FBF1F0009000BF0098411E36
:101530000091FAD20EE080E0C0F80080FFF73AFC9C
:10154000074604E0FFF736FCC01B022875D8686A1E
:101550008007F7D42078400760D5E8690027C000ED
:1015600008D4E86940F08050E861E869012700F09C
:10157000805000905C480168C90513D40168834617
:1015800041F480710160FFF715FC824606E000BF60
:10159000FFF710FCA0EB0A0064284ED8DBF800002F
:1015A000C005F5D5E06801280AD008B1052813D098
:1015B000286A20F001002862286A20F0040002E076
:1015C000286A40F001002862E06841F2883B98B147
:1015D000FFF7F0FB82460BE0286A40F00400286227
:1015E000EEE700BFFFF7E6FBA0EB0A0159455AD82A
:1015F000286A8007F6D50CE0FFF7DCFB824605E0A1
:10160000FFF7D8FBA0EB0A0159454CD8286A8007A0
:10161000F6D41FB1E86920F08050E861E06988B332
:101620006968C1F38101022944D00228C6F86080AC
:1016300004D0FFF7BFFB044638E034E0FFF7BAFB05
:10164000074604E0FFF7B6FBC01B02282BD828682A
:101650008001F7D4206AB0F5803F05D16868A168A1
:1016600020F4003008436860D4E908010843696841
:1016700021F4741108436860C6F86090FFF79AFB84
:10168000044606E025E000BFFFF794FB001B02289C
:1016900009D828688001F7D51BE000BFFFF78AFB57
:1016A000001B022802D90320BDE8F88F28688001BA
:1016B000F4D40EE00128F7D06868226A00F4803183
:1016C000914204D1616A00F47010884201D0012077
:1016D000EAE70020E8E70000001002400000424274
:1016E00080044242180000200070004010B5401EE7
:1016F000B0F1807F01D3012010BD4FF0E024606184
:101700000F21601701F0FEFD0020A061072020617D
:10171000002010BD7047704770B590F83C20012A3A
:1017200026D0012480F83C40022280F83D20036846
:101730005A689D6822F070060A6832435A600D4B61
:1017400002689A4208D0B2F1804F05D00A4B9A4203
:1017500002D00A4B9A4204D1496825F0800319430C
:10176000916080F83D40002180F83C10084670BD33
:10177000022070BD002C0140000400400008004021
:1017800010B5040003D094F83D0010B107E001202B
:1017900010BD002084F83C00204600F01FF8022015
:1017A00084F83D00211D206801F084FA012084F8AE
:1017B000460084F83E0084F83F0084F8400084F836
:1017C000410084F8420084F8430084F8440084F81F
:1017D000450084F83D00002010BD000008B50068F9
:1017E0000B49884212D10B48816941F40061816143
:1017F0008069002200F40060009009211920FFF7A1
:10180000D7FCBDE808401920FFF7C4BC08BD0000A4
:10181000002C01400010024090F83D10012901D039
:1018200001207047022180F83D100168CA6842F02B
:101830000102CA6000680B49884208D0B0F1804FAD
:1018400005D00949884202D00849884204D18168FC
:1018500001F00701062903D0016841F00101016090
:1018600000207047002C01400004004000080040A8
:1018700070B5044690F83C000025012817D00126D9
:1018800084F83C60022084F83D002068826822F0E1
:10189000770222F47F4282600868502838D00DDC3D
:1018A00020284FD005DC90B3102811D14AE0022047
:1018B00070BD302846D040280AD13BE060282FD0A8
:1018C00070280DD0B0F5805F03D0B0F5005F12D066
:1018D000012584F83D60002084F83C00284670BD56
:1018E000CB68D1E90121206801F027FA20688168DE
:1018F00041F0770109E0CB68D1E90121206801F0CE
:101900001CFA2068816841F480418160E1E719E0B8
:10191000CA684968206801F0C5FA5021206806E0CD
:10192000CA684968206801F0CEFA6021206801F099
:101930000EFACEE7CA684968206801F0B3FA402180
:101940002068F4E7226801461046F0E72DE9F041EF
:101950000D46040003D094F83D0018B108E00120C2
:10196000BDE8F081002084F83C00204600F040F8FB
:10197000022084F83D002068816844F20702914308
:101980008160211D206801F095F9226890689169B5
:10199000166A2B68AF69034340F20330814341EA82
:1019A0000721A868EF6908434FF6FC418843E968BE
:1019B00040EA0720014328692F6A000140EA073006
:1019C000084369686D6926F0220646EA0515294331
:1019D00093602268906154F8460B0162012004F87C
:1019E0001F09E0752076E0762077A0750020B7E724
:1019F00000B585B00021009101910291039100682A
:101A0000114988421ED11148C16941F00401C161E8
:101A1000C16901F004010491816941F0080181610B
:101A20008069694600F008000490C02000900848D2
:101A3000FFF7CAF8002201211E20FFF7B9FB1E2084
:101A4000FFF7A8FB05B000BD0008004000100240F1
:101A5000000C014070B590F83E60044690F83F508D
:101A600090F8423090F84320022021B104290ED092
:101A7000012E1BD114E0012E18D1012B16D184F8B0
:101A80003E0084F8420001220021206820E0012D60
:101A90000CD1012A0AD184F83F0084F8430014E0F5
:101AA000012D03D1012B01D1012A01D0012070BDEC
:101AB00084F83E0084F83F0084F8420084F8430034
:101AC00001220021206801F02BF901220421206865
:101AD00001F026F92068016841F001010160002051
:101AE00070BD704770B50446006801694FF000058D
:101AF000C943890715D4C168C943890711D4E91EB0
:101B0000016101202077206880698007204602D08B
:101B1000FFF7E7FF04E000F0CBF8204600F09AF969
:101B2000257720680169C943490717D4C168C943AB
:101B3000490713D46FF00401016102202077206867
:101B4000806910F4407F204602D0FFF7CAFF04E00E
:101B500000F0AEF8204600F07DF925772068016995
:101B6000C943090716D4C168C943090712D46FF0E5
:101B700008010161042020772068C06980072046A1
:101B800002D0FFF7AEFF04E000F092F8204600F02C
:101B900061F9257720680169C943C90617D4C1686E
:101BA000C943C90613D46FF01001016108202077E2
:101BB0002068C06910F4407F204602D0FFF791FFF3
:101BC00004E000F075F8204600F044F9257720681D
:101BD0000169C943C90708D1C168C943C90704D10C
:101BE000891E0161204600F085F920680169C9431A
:101BF000090609D4C168C943090605D46FF08001FC
:101C000001612046FFF786FD20680169C943490646
:101C100009D4C168C943490605D46FF04001016188
:101C2000204600F0B1F920680169C94389060BD448
:101C3000C168C943890607D46FF0200101612046BD
:101C4000BDE87040FFF767BD70BD000010B586B0FD
:101C50000021009101910291039103681149022230
:101C60001148B3F1804F13D0104CA3420ED18B69B1
:101C700043F004038B61896901F004010491C021E0
:101C8000CDE9001269460392FEF79EFF06B010BD33
:101C90008B6943F004038B61896901F004010491AD
:101CA0000821EDE700100240000801400004004058
:101CB000704770B5044690F83C0000260D46012898
:101CC0000FD0012084F83C006AB1042A1DD0082AF4
:101CD0002FD00C2A3FD00126002084F83C0030464B
:101CE00070BD022070BD206801F03AF8206881695B
:101CF00041F0080181612068816921F0040181615E
:101D0000206881692A69114311E0206801F050F8C8
:101D10002068816941F4006181612068816921F452
:101D200080618161206881692A6941EA02218161BB
:101D3000D2E7206801F068F82068C16941F0080125
:101D4000C1612068C16921F00401C1612068C169D5
:101D50002A69114311E0206801F082F82068C16906
:101D600041F40061C1612068C16921F48061C161F1
:101D70002068C1692A6941EA0221C161ACE710B556
:101D8000040003D094F83D0010B107E0012010BD1D
:101D9000002084F83C00204600F01EF8022084F861
:101DA0003D00211D206800F085FF012084F84600D9
:101DB00084F83E0084F83F0084F8400084F8410035
:101DC00084F8420084F8430084F8440084F8450015
:101DD00084F83D00002010BD00B585B000210091C1
:101DE00001910291039101681748B1F1804F0CD025
:101DF000164A914207D1C16941F00201C161C0692F
:101E000000F00200049005B000BDC16941F001017D
:101E1000C161C16901F001010491816941F00401CE
:101E200081618069694600F00400049003200090FD
:101E30000748FEF7C9FE002201211C20FFF7B8F970
:101E40001C20FFF7A7F9DEE7001002400004004065
:101E5000000801407047000010B50446022249B155
:101E600004290ED0082913D094F84100012816D077
:101E7000012010BD94F83E000128F9D184F83E20DD
:101E80000FE094F83F000128F2D184F83F2008E0E9
:101E900094F840000128EBD184F8402001E084F858
:101EA00041200122206800F03BFF0F492068884252
:101EB00003D1426C42F4004242642068884208D058
:101EC000B0F1804F05D00949884202D008498842C4
:101ED00004D1816801F00701062903D0016841F0AF
:101EE00001010160002010BD002C014000040040F1
:101EF0000008004038B51C49096809681B49884238
:101F000030D100F070FE1A4C2168491C216044F663
:101F1000206148434FF4706190FBF1F005B26946CF
:101F2000284600F00FFE134A1188084403B242F21B
:101F300010701380834201DD108003E0012B01DA71
:101F40000120F9E7B2F9000000F068FE206864287B
:101F500008DB0020206008482946B0F9002007A0CF
:101F600001F0C0F938BD0000BC0000207400002062
:101F70000800002006000020000000202568642CD6
:101F80002568640A00000000704770477047000031
:101F9000F8B5016804460868CA684B6910F00F0F6D
:101FA0004FF0000559D003F0010602F49077374353
:101FB00065D0C10705D0D10503D5616C41F00101A1
:101FC0006164410705D5D90703D0616C41F0020176
:101FD0006164810705D5D90703D0616C41F0040124
:101FE0006164010707D502F02001314303D0616C21
:101FF00041F008016164616C00293AD0800604D583
:10200000900602D5204601F024F820684069616CF2
:10201000C0F38010090700D460B3204600F0E4FF4D
:1020200020684069400621D52068143050E8001F20
:1020300021F0400140E80012002AF5D1E06BA8B180
:102040006D494163E06BFEF751FC002811D0E06B55
:10205000416B01B0BDE8F040084783060FD59306F9
:102060000DD52046BDE8F84000F0F3BF2046FFF74D
:102070008DFFF8BD2046FFF789FF6564F8BD266B2C
:102080002023012E7CD1C6067AD5D60678D50868DD
:102090004868009048694FF00206400640D5E16B61
:1020A000086840680004000CE8D0A28D8242E5D99F
:1020B000E085886920282DD020680C3050E8001F6A
:1020C00021F4807140E80012002AF5D12068143014
:1020D00050E8001F21F0010140E80012002AF5D16C
:1020E0002068143050E8001F21F0400140E8001241
:1020F000002AF5D184F84230256320680C3050E87E
:10210000001F21F0100140E80012002AF5D1E06B19
:10211000FEF7C8FB6663A08DE18D401A81B22AE00C
:10212000A08DE18D401A81B2E08D0028A6D0002953
:10213000A4D022680C3252E8000F20F4907042E8DC
:102140000007002FF5D12068143050E8002F22F04E
:10215000010240E80027002FF5D184F842302563C2
:1021600020680C3050E8002F22F0100240E80023D5
:10217000002BF5D166632046FFF707FFF8BDFFE7A8
:1021800005062BD5150629D594F841002128F5D14F
:10219000A068B0F5805F01D12069B0B1206A411C10
:1021A0002162216800784860E08C401E0004000C29
:1021B000E084E3D12068C16821F08001C16020681B
:1021C000C16841F04001C160D8E7206A0088C0F3CF
:1021D00008004860206A801C2062E5E74006CDD5F3
:1021E0005006CBD5CA68204622F04002CA6084F867
:1021F000413000F006F9C1E7EB2E000870B504008D
:1022000004D094F84100002510B106E0012070BD13
:1022100084F84050204600F023F8242084F8410040
:102220002068C16821F40051C160204600F072FFAF
:102230002068016921F4904101612068416921F021
:102240002A0141612068C16841F40051C1606564A0
:10225000202084F8410084F842006563002070BDAE
:102260002DE9F04186B000240646009401940294C2
:10227000039400682F49884258D12F48816941F45E
:1022800080418161816901F480410491816941F05B
:10229000040181618069294D00F0040004904FF42D
:1022A00000700090022001900320039069462846A8
:1022B000FEF78AFC2815CDE90004694628460294F9
:1022C000FEF782FC1F4D1E484FF08008C5E9000450
:1022D000C5E902482020C701EF612C61C5E905402E
:1022E0002846FEF7F9FB08B1FEF7DAFAF5636E62ED
:1022F000144D13484435143801C51020A5E81101C8
:10230000104845F8104944306C61C5E90647FEF7AE
:10231000E3FB08B1FEF7C4FAB5630022114625209D
:102320006E62FEF745FF2520FEF734FF06B0BDE8DC
:10233000F081000000380140001002400008014018
:1023400058000240DC01002090F84230202B01D0E0
:102350000220704721B11AB10023036300F036BF99
:1023600001207047704770472DE9F843044690F804
:1023700041001F4616460D46202802D00220BDE827
:10238000F8837DB176B100206064212084F841009B
:10239000FEF710FDA6848046E684A068B0F5805F55
:1023A00002D003E00120EAE7206910B12E460025A3
:1023B0000EE000260CE08021204600F04FFFA0B97F
:1023C000AEB116F8010B21684860E08C401EE08435
:1023D000E08C43464FF0000200970028EBD14FF00D
:1023E0004001204600F03AFF30B10320C7E735F83E
:1023F000020BC0F30800E6E7202084F8410000202B
:10240000BDE77047FEE701684A69D24352050FD421
:102410006FF480624A61002140F8301F202242732D
:102420008173026942F00402026101730120704766
:1024300000207047F8B50446C06A1E460D46174690
:10244000082807D0012805D010F5803F02D0206B66
:10245000122804D12068016841F48071016013469C
:1024600000224FF001112046009600F05DF840B1C7
:1024700020680068C00502D54FF400702064032076
:10248000F8BD2069B0F5804F0ED00620216800EA23
:10249000D51040F0F000086133463A460B4920461B
:1024A00000F08AF878B902E005F0FE0000E0E8B23A
:1024B00021680861054933463A46891F204600F0E5
:1024C0007BF80028DCD00120F8BD000008000100E6
:1024D00070B516460D4604461EE02046FFF793FFF2
:1024E00008B1012070BD681C16D0FEF763FC801B8C
:1024F000A84200D885B920684069C04340070BD581
:10250000002044F8300F20216173A073216941F04D
:10251000200121612073E4E720684069C04340073F
:10252000DBD4002070BD00002DE9F0479846174627
:102530000D460446C1F30746DDF820902AE000BFAF
:10254000B8F1FF3F26D0FEF735FCA0EB090141456D
:1025500002D8B8F1000F1DD12068012E16D0806975
:1025600025EA00000004000C12D00020B84211D16E
:10257000002044F8300F20216173A073216941F0DD
:102580002001216120730120BDE8F0874069E7E761
:102590000120EBE72068012E0AD0806925EA0000BF
:1025A0000004000C06D00020B842C9D00020EBE7A0
:1025B0004069F3E70120F7E72DE9F0479846164612
:1025C0000D4604464FF000094FF0200AC1F30747BB
:1025D00023E020684069C043400515D420680168A5
:1025E00041F40071016021686FF480604861C4F8B3
:1025F000309084F83DA084F83E90216C41F00401B5
:10260000216484F83C9021E0701C06D0FEF7D2FBD8
:10261000A0EB0800B04203D816B1012F1FD021E073
:102620002068012F15D0806925EA00000004000C05
:1026300018D000BF44F8309F84F80DA084F80E90A5
:10264000216941F02001216184F80C900120BDE84E
:10265000F087406925EA00000004000CEAD12068F8
:10266000406901E02068806925EA00000004000C50
:10267000AFD1ECE770B516460D4604461EE0204685
:10268000FFF7C1FE08B1012070BD681C16D0FEF72F
:1026900091FB801BA84200D885B920684069C043DF
:1026A00000060BD5002044F8300F20216173A07381
:1026B000216941F0200121612073E4E7206840692D
:1026C000C0430006DBD4002070BD00000D4808B5F3
:1026D000416941F0010141614069002200F00100BF
:1026E000009011460E20FEF763FD0E20FEF752FD0E
:1026F000002211460F20FEF75BFDBDE808400F20C9
:10270000FEF748BD0010024070B586B00024204896
:102710000094019402940394816941F01001816155
:10272000816901F010010491816941F0200181610A
:10273000816901F020010491816941F00401816106
:10274000816901F004010491816941F0080181610E
:102750008069104E00F008000490002210213046DD
:10276000FEF722FB4FF4604001258DE831006946F9
:102770000948FEF729FA1020CDE900050220CDE92D
:10278000024069463046FEF71FFA06B070BD0000F1
:102790000010024000080140001001400D4810B533
:1027A0000B4901600C49416000214FF48042816077
:1027B000C0E9031241618161C1610162FEF700FB62
:1027C000002803D0BDE81040FEF76AB810BD000035
:1027D0000054004020000020801A060010B586B08A
:1027E000002418480094019402940394049414491A
:1027F0000594016041F61F41C0E901143121C0E98F
:1028000003148021C0E90541FEF7BAFF08B1FEF7C5
:1028100047F84FF48050009069460A48FFF728F8BF
:1028200008B1FEF73DF8049404A906480594FEF7A4
:1028300073FF002801D0FEF733F806B010BD00008A
:10284000002C01407400002010B592B0242168468D
:10285000FDF781FC002410941C2109A81194FDF7B8
:102860007AFC1F484FF08041C0E900144FF6FF7119
:10287000C0E90241802104618161FFF780FA08B15B
:10288000FEF70EF80320CDE900040120CDE9020493
:102890000494CDE905400794694611480894FFF770
:1028A00055F808B1FDF7FCFF109410A90C481194DD
:1028B000FEF732FF08B1FDF7F3FF6020CDE9090410
:1028C0000B940C2209A906480D94FFF7F2F908B100
:1028D000FDF7E6FF0248FFF7B9F912B010BD00009E
:1028E000BC00002010B58AB0002407941C21684663
:1028F0000894FDF730FC1C481A4901604721C0E9E3
:10290000011442F20F71C0E903148461FFF737FA32
:1029100008B1FDF7C5FF079407A913480894FEF70F
:10292000FBFE08B1FDF7BCFF6020CDE90004029476
:10293000002269460C480494FFF7BBF908B1FDF783
:10294000AFFF41F287300190042269460648FFF745
:10295000B0F908B1FDF7A4FF0348FFF777F90AB013
:1029600010BD0000000400400401002010B58CB030
:1029700024216846FDF7EFFB00241648099414490A
:102980000A9401600321C0E9011444F62061C0E902
:10299000031484610120CDE90004CDE9020404940C
:1029A000CDE90540079469460A480894FEF7CEFF32
:1029B00008B1FDF775FF099409A906480A94FEF7C6
:1029C000ABFE002801D0FDF76BFF0CB010BD00007E
:1029D000000800404C0100200C4810B50A49016075
:1029E0004FF4E1314160002181600C22C160C0E9F7
:1029F00004128161C161FFF701FC002803D0BDE82A
:102A00001040FDF74DBF10BD00380140940100207B
:102A1000FEE7FEE770B5002404F1B000C0B200216B
:102A200000F0E8F80021084600F0E4F8002110204A
:102A300000F0E0F800254021002000F0DBF86D1CDC
:102A4000EDB2802DF7D3641CE4B2082CE4D370BD42
:102A500010B56420FEF7A6F80021AE2000F0CAF8F9
:102A60000021202000F0C6F80021102000F0C2F85C
:102A70000021B02000F0BEF80021084600F0BAF8AE
:102A80000021102000F0B6F80021C82000F0B2F8B4
:102A90000021402000F0AEF80021812000F0AAF8CB
:102AA0000021FF2000F0A6F80021A12000F0A2F8EC
:102AB0000021C82000F09EF80021A62000F09AF81E
:102AC0000021A82000F096F800213F2000F092F8A5
:102AD0000021A42000F08EF80021D32000F08AF815
:102AE0000021084600F086F80021D52000F082F889
:102AF0000021F02000F07EF80021D92000F07AF8C3
:102B00000021222000F076F80021DA2000F072F88F
:102B10000021122000F06EF80021DB2000F06AF89E
:102B20000021202000F066F800218D2000F062F8DE
:102B30000021142000F05EF80021BDE81040AF2015
:102B400000F058B82DE9F041214D0E462988081AA9
:102B500004B22046FDF787FC1E49884203DA1E496D
:102B6000884200D200243480B5F90400FDF77BFCD4
:102B70008046B5F902000746FDF775FC0121FDF717
:102B80004DFB06462046FDF76EFC3146FDF740FB47
:102B90004146FDF7EBFAFDF79FFC104A104BFDF79D
:102BA000F0FB06468846E01B40F28A21484304EBCE
:102BB000840100EB8100FDF75FFC32464346FDF7E0
:102BC00039FBFDF76AFCAF8000B26C80BDE8F08194
:102BD00000000020CDCC4C3ECDCC4CBEB81E85EBC9
:102BE00051B89E3F70474FF08041486A002200B2C2
:102BF0004A6270471CB502238DF804108DF8050059
:102C00004FF6FF70009001AA78210248FEF79CF968
:102C10001CBD00002000002070470000002800DAE2
:102C2000404201490860704738040040FEF75ABA34
:102C300030B58FB028216846FDF78DFA14210AA817
:102C4000FDF789FA01210804CDE90010002402945F
:102C500002250491CDE907504FF4E0100990684631
:102C6000FEF7B4FB08B172B6FEE70F20CDE90A0506
:102C70004FF48060CDE90C4002210AA80E94FEF7C3
:102C8000C9FA002801D072B6FEE70FB030BD704718
:102C90000148FEF727BF0000740000200148FEF73E
:102CA00021BF0000BC0000200148FEF71BBF000050
:102CB0004C010020F0B50268164B174C174D4FF031
:102CC0008047984205D0B84203D0A04201D0A84224
:102CD00003D122F070064A683243984205D0B842C8
:102CE00003D0A04201D0A84203D122F44074CA68A4
:102CF00022434C6922F08002224302608A68C26249
:102D00000A688262984201D1096901630121416127
:102D1000F0BD0000002C014000040040000800400D
:102D200010B501F01F030121046A99408C4304622D
:102D3000016A9A401143016210BD10B5846842EAED
:102D4000032224F47F440A432243826010BD826838
:102D500022F070020A4342F00701816070470000D0
:102D600030B5036A026A22F0010202624268846995
:102D700024F073050C682C4323F002058B682B4369
:102D80000A4DA8420BD123F00805CB6822F440720B
:102D90002B434D6923F0040315438A692A4342609B
:102DA000846149684163036230BD0000002C01402A
:102DB00030B5026A036A23F0100303624368846932
:102DC0000D6824F4E64444EA05248D6822F02002CC
:102DD00042EA05120B4DA8420ED1CD6822F08002C6
:102DE00042EA05124D6923F4406343EA85038D6985
:102DF00022F0400243EA85034360846149688163AD
:102E0000026230BD002C014030B5036A026A22F430
:102E1000807202624268C46923F4007324F073056F
:102E20000C682C438D6843EA05230C4DA8420ED153
:102E3000CD6823F4006343EA05234D6922F4405230
:102E400042EA05128D6923F4806342EA051242606A
:102E5000C4614968C163036230BD0000002C0140B9
:102E600030B5046A026A22F4805202624268C36981
:102E70000D6823F4E64343EA05238D6824F40054E7
:102E800044EA0534064DA84204D14D6922F480423B
:102E900042EA85124260C36149680164046230BD40
:102EA000002C014010B5036A046A24F00104046296
:102EB000846924F0F00444EA021423F00A020A436D
:102EC0008461026210BD10B5036A046A24F0100424
:102ED0000462846923F0A00324F4704444EA0232BB
:102EE00043EA01118261016210BD10B5406A002100
:102EF000C185C184FFF74AF810BD70B5446A2068E7
:102F0000406994F84110C0F3C0100025212904D174
:102F100018B1E584204600F08EF82068406994F8E6
:102F20004210C0F38010222904D118B1E585204653
:102F300000F05AF8606C40F0100060642046FFF723
:102F400025F870BD10B50146406A096809684FF060
:102F5000000289062ED4C28501680C3151E8003F79
:102F600023F4807341E80034002CF5D1016814315A
:102F700051E8003F23F0010341E80034002CF5D173
:102F80000168143151E8003F23F0400341E8003468
:102F9000002CF5D1202180F84210016B012909D1C4
:102FA00001680C3151E8003F23F0100341E8003480
:102FB000002CF5D14263016B012902D0FFF7D2F951
:102FC00010BD818DFEF7E1FF10BD10B5406A0121F3
:102FD0004163016B012902D0FFF7C5F910BD818D56
:102FE0004908FEF7D2FF10BD01680C3151E8002FEF
:102FF00022F4907241E80023002BF5D101681431CE
:1030000051E8002F22F0010241E80023002BF5D106
:10301000016B012909D101680C3151E8002F22F020
:10302000100241E80023002BF5D1202180F8421046
:1030300000210163704701680C3151E8002F22F034
:10304000C00241E80023002BF5D1202180F8411077
:10305000704708B590F84210222901D0022008BD1F
:1030600082684FF480539A4201D1016921B1816A8B
:103070009A421BD04AB10AE00268816A5268C2F3E0
:1030800008020A80816A891C08E0026972B102683C
:10309000526802F07F020A70816A491C8162C18D08
:1030A000491E0904090CC18503D01BE0026852685F
:1030B000F1E70168CA6822F02002CA600168CA68A4
:1030C00022F48072CA6001684A6922F001024A61F2
:1030D000202180F8421000214163026B012A03D0B5
:1030E000FFF740F9002008BD016301680C3151E889
:1030F000002F22F0100241E80023002BF5D10168D7
:103100000A68D20602D50A6849680091818DFEF7E7
:103110003CFFE7E770B5044600680169E26821F406
:103120004051114301612169A06808436169084366
:103130002168CA6841F20C639A430243CA6020685E
:103140004169A26921F44071114341611E4920681F
:10315000884202D1FEF704F901E0FEF7F1F800EB36
:10316000C00101EB0012606864218000B2FBF0F343
:10317000B3FBF1F36FF018067343B2FBF0F5B2FB4B
:10318000F0F605EB8305322303EB0515B5FBF1F5EE
:10319000B6FBF1F605F0F00505EB0615B2FBF0F60F
:1031A000B2FBF0F0B0FBF1F06FF01802504306EB09
:1031B000800003EB0010B0FBF1F0216800F00F007D
:1031C0002844886070BD00000038014038B5816235
:1031D00004468285002013466064222284F842203F
:1031E000E56B1B4AAA62E56B1A4AEA62E56B1A4A6A
:1031F0002A63E26B50630A462168E06B091DFDF704
:1032000099FC2068016840680090206948B12068F6
:103210000C3050E8001F41F4807140E80012002A91
:10322000F5D12068143050E8001F41F0010140E85A
:103230000012002AF5D12068143050E8001F41F038
:10324000400140E80012002AF5D1002038BD0000FE
:10325000452F0008CB2F0008FB2E00082DE9F04178
:10326000984617460E460446069D27E0681C25D062
:103270002DB1FDF79FFDA0EB0800A8421ED92068E4
:103280000C3050E8001F21F4D07140E80012002AF1
:10329000F5D12068143050E8001F21F0010140E80A
:1032A0000012002AF5D1202084F8410084F8420061
:1032B000002084F840000320BDE8F0812068006809
:1032C00036EA000004D00020B842CFD00020F3E757
:1032D0000120F9E70148FEF75BBE000094010020E1
:1032E000FEE700000FB4054B10B503A9044A02988D
:1032F00000F0EAF810BC5DF814FB0000D13B0008B8
:103300001C0000200907090E002804DB00F1E02062
:1033100080F80014704700F00F0000F1E02080F802
:10332000141D704702E008C8121F08C1002AFAD114
:1033300070477047002001E001C1121F002AFBD135
:10334000704700002DE9FF5F82B00021DDE9043005
:10335000020DDDF840B0034318D044F61050A2F23D
:10336000FF3242431514119801281FD0A5EB0B0022
:10337000401C5FEA000A4FF000064E4FDFF838911C
:10338000B046504615D5CAF1000413E01198012447
:103390004AA3012801D16FEA0B010298119AC0E9F2
:1033A0000031C0E9024206B0BDE8F09FCBF1000059
:1033B000DFE704460021404A491842EB0450CDE9BA
:1033C000001012E0E00707D032463B46404649462F
:1033D000FCF7D7FF8046894632463B4610461946E1
:1033E000FCF7CFFF06460F466410002CEAD1DDE95A
:1033F0000401DDE90023BAF1000F06DAFCF7C1FF92
:1034000042464B46FCF7BDFF05E0FDF774F9424626
:103410004B46FDF770F904460E460022284BFDF797
:10342000F1F903D84FF0FF30014607E00022254BA9
:1034300020463146FCF7FEFEFDF7CCF9102409E0EA
:10344000002C0ADB0A220023FDF76FF8039B3032C1
:103450001A55641E50EA0102F2D1641C039AC4F1A9
:1034600011031444119A012A03D0012208430DD1FB
:103470000AE0084304D000204FF0110B119072E7CE
:10348000A3EB0B056D1E0DE05B4504DD4FF0000264
:1034900005F1010504E003DA4FF00002A5F1010592
:1034A000002AECD002981199C0E90231C0E9004528
:1034B00079E70000000014400000F03F30000000F9
:1034C0000000F0430000E03F2DE9FF4F95B09A4621
:1034D000884606460025EEE1252877D100242746B8
:1034E000F94A0121039400E0044316F8013F203B10
:1034F00001FA03F01042F7D130782A2811D06FF08A
:103500002F033078A0F13002092A16D8039A44F02C
:10351000020402EB820203EB42021044761C039089
:10352000EFE758F8042B0392002A03DA504244F4E0
:103530000054039044F00204761C30782E2816D1F3
:1035400016F8010F44F004042A280DD06FF02F0262
:103550003078A0F13003092B09D807EB870302EB81
:103560004303C718761CF3E758F8047B761C3078C1
:103570006C280FD006DC4C2817D068280DD06A289C
:1035800014D104E0742810D07A280FD10DE044F44F
:1035900000140AE044F4801401E044F4401472780A
:1035A000824202D104F58014761C761C307866289D
:1035B0000BD013DC582877D009DC002875D04528BB
:1035C000F6D04628F4D047281AD193E118E06328B2
:1035D00035D0642879D0652812D18BE1702873D05A
:1035E00008DC6728F1D069286FD06E280DD06F28CD
:1035F00006D1ACE073282CD0752874D0782853D02D
:103600005246179990476D1C54E1C4F302500228AA
:1036100009D003280DD0D8F8001004280DD00D6073
:1036200008F1040846E1D8F80010EA17C1E9005291
:10363000F6E7D8F800100D80F2E70D70F0E718F803
:10364000041B8DF8001000208DF80100EB460120CE
:1036500003E058F804BB4FF0FF3061074FF0000162
:1036600002D40DE009F101018946B9420FDA814522
:10367000F8DB1BF809100029F4D108E009F1010179
:1036800089468142FADB1BF809100029F6D103981C
:103690005346A0EB090721463846179A00F080FAF6
:1036A000284400EB090507E044E008E10DE01BF8C1
:1036B000010B524617999047B9F10109F7D25346C9
:1036C00021463846179AF2E039E00A21C4F3025243
:1036D0004FF0000B0091022A06D058F8040BC117D6
:1036E000032A09D00AE023E008F1070020F00702CE
:1036F000F2E80201904605E000B2C117042A01D1A8
:1037000040B2C117002906DA0A460021404261EBA7
:1037100002012D2202E0220504D52B228DF804207F
:10372000012203E0E20701D02022F7E7914657E0AB
:103730000A2100E010214FF0000B00910BE0102156
:103740004FF0000B44F004040827009103E0082028
:103750004FF0000B0090C4F30252022A05D058F833
:10376000040B0021032A08D008E008F1070020F02C
:103770000702F2E80201904603E080B2042A00D179
:10378000C0B24FF0000922072AD53278702A07D03C
:10379000DDF800C08CF0100C5CEA0B0C05D00EE0DC
:1037A00040228DF80420012208E050EA010306D0EF
:1037B00030238DF804308DF8052002229146009BBD
:1037C00083F0080353EA0B030AD150EA010201D146
:1037D000620705D530228DF804204FF001097F1EC5
:1037E0003278582A04D039A20C920CAA02920BE02B
:1037F0003BA2F9E75B46009AFCF797FE0C9B9B5CAB
:10380000029A521E0292137050EA0102F2D10298FB
:1038100004A9081A00F1200B600702D524F48034B3
:1038200000E001275F4502DDA7EB0B0000E0002070
:1038300000EB0B01009003984944401A0390E00309
:1038400006D453462146179A039800F0A9F9054477
:10385000002706E001A85246C05D179990476D1CED
:103860007F1C4F45F6DBE0030CD553462146179AE3
:10387000039800F095F9054404E03020524617996A
:1038800090476D1C0099481E00900029F5DC08E067
:103890000298029952460078491C02911799904764
:1038A0006D1CBBF10001ABF1010BF1DC5BE100F041
:1038B00065F90544761C307800287FF40DAE19B008
:1038C0002846BDE8F08F000009280100303132336E
:1038D000343536373839616263646566000000004C
:1038E0003031323334353637383941424344454636
:1038F00000000000600700D4062708F1070020F050
:103900000700F0E80223804603F0004C5FEA0C0059
:1039100001D097A009E0200501D596A005E0E007B9
:1039200001D095A001E0AFF24C001390307823F065
:10393000004365280CD006DC452809D046281DD058
:1039400047287FD13BE0662818D067287AD136E037
:103950000021112F01DB112000E0781CCDE90001CE
:1039600004A90CA8FFF7EEFCDDE90D010C9A4FF05D
:10397000000B07F10109109200914EE04FF000405A
:103980000097CDE9011004A90CA8FFF7DBFCDDE9E5
:103990000D020C9B0F994FF0000B91461093009273
:1039A00011B9791C00EB0109B7EB090003D4C0F190
:1039B000FF3B07F10109A9EB0700019042E0012F4D
:1039C00000DA01270021112F01DD112000E0384627
:1039D000CDE9000104A90CA8FFF7B4FCDDE90D0155
:1039E0000C9A00914FF0000BB946109221070FD4AA
:1039F000009A4A4503DA914601E0A9F10109B9F1BB
:103A0000010F05DD109AA9F10101515C3029F4D0B4
:103A1000B84202DA10F1040F03DA0121CDE90110F6
:103A200010E0002803DC8344A9EB000102E0411C04
:103A3000494500DD8946A0EB0B00401C01904FF08A
:103A400000400290200705D40198484502DB4FF062
:103A5000FF30019000208DF84B0002980DF14B07CC
:103A6000B0F1004F25D002200C902B200D90029831
:103A700000280CDA404202902D200D9007E00A2128
:103A80000298FCF73CFD3031029007F8011D0C99BB
:103A9000481E0C900029F2DC02980028EFD1791E14
:103AA0000D980870307800F0200040F0450007F8CD
:103AB000020D11A8C01BC01D02901398007800B120
:103AC000012000EB0901019801EBE071029801442B
:103AD0000398401A401E0390E00306D45346214643
:103AE000179A039800F05CF805441398007818B111
:103AF0005246179990476D1CE00323D55346214643
:103B0000179A039800F04CF805441BE0BBF1000F36
:103B100007DB0098584504DD1098179910F80B0042
:103B200001E0179930205246904701980BF1010BA4
:103B3000401E05F10105019004D12E20524617992F
:103B400090476D1CB9F10001A9F10109DEDC05E027
:103B500017F8010B5246179990476D1C0299481EA1
:103B600002900029F4DC53462146179A03989EE6FA
:103B70002D0000002B000000200000002DE9F04186
:103B8000044600251E461746880404D405E039463D
:103B90002020B0476D1C641EF9D52846BDE8F08191
:103BA0002DE9F041044600251E469046C80301D584
:103BB000302700E02027880404D505E04146384638
:103BC000B0476D1C641EF9D52846BDE8F0810000A1
:103BD00013B54FF0FF33012269460248FEF7C4FBDC
:103BE00000981CBD94010020002204211848FDF714
:103BF000DBF8FDF77FFAFFF71BF8FEF785FDFEF710
:103C000065FDFEF7CBFDFEF71FFEFEF76BFEFEF730
:103C1000ADFEFEF7E3FDFEF7DFFE04210D48FEF7E3
:103C20001BF90D496FF00100096808610A48FDF7AA
:103C3000F3FD022209490A48FEF786FB04210948E0
:103C4000FDF708FFFEF704FFFEF7E4FEFEE70000C5
:103C50000008014004010020740000200000002042
:103C600094010020BC0000200102020304050607A5
:103C700008090A0B0C0D0E0F1010000000000000C8
:103C80000000010203040607080900000000010209
:103C900003040000B43C00080000002020000000E5
:103CA00024330008D43C000820000020480600000F
:103CB00034330008960000000000000000000000FF
:103CC0000100000010000000000000000024F400CB
:043CD00000000000F0
:04000005080000ED02
:00000001FF
